{
  "_format": "hh-sol-artifact-1",
  "contractName": "AssetFactory",
  "sourceName": "contracts/AssetFactory.sol",
  "abi": [
    {
      "anonymous": false,
      "inputs": [
        {
          "indexed": true,
          "internalType": "address",
          "name": "previousOwner",
          "type": "address"
        },
        {
          "indexed": true,
          "internalType": "address",
          "name": "newOwner",
          "type": "address"
        }
      ],
      "name": "OwnershipTransferred",
      "type": "event"
    },
    {
      "inputs": [
        {
          "internalType": "address",
          "name": "_owner",
          "type": "address"
        },
        {
          "internalType": "string",
          "name": "_name",
          "type": "string"
        },
        {
          "internalType": "string",
          "name": "_symbol",
          "type": "string"
        },
        {
          "internalType": "string",
          "name": "_baseURI",
          "type": "string"
        },
        {
          "internalType": "address",
          "name": "_imx",
          "type": "address"
        }
      ],
      "name": "createCollection",
      "outputs": [],
      "stateMutability": "nonpayable",
      "type": "function"
    },
    {
      "inputs": [],
      "name": "getCollections",
      "outputs": [
        {
          "internalType": "contract Asset[]",
          "name": "",
          "type": "address[]"
        }
      ],
      "stateMutability": "view",
      "type": "function"
    },
    {
      "inputs": [],
      "name": "owner",
      "outputs": [
        {
          "internalType": "address",
          "name": "",
          "type": "address"
        }
      ],
      "stateMutability": "view",
      "type": "function"
    },
    {
      "inputs": [],
      "name": "renounceOwnership",
      "outputs": [],
      "stateMutability": "nonpayable",
      "type": "function"
    },
    {
      "inputs": [
        {
          "internalType": "address",
          "name": "newOwner",
          "type": "address"
        }
      ],
      "name": "transferOwnership",
      "outputs": [],
      "stateMutability": "nonpayable",
      "type": "function"
    }
  ],
  "bytecode": "0x608060405234801561001057600080fd5b5060006100216100c460201b60201c565b9050806000806101000a81548173ffffffffffffffffffffffffffffffffffffffff021916908373ffffffffffffffffffffffffffffffffffffffff1602179055508073ffffffffffffffffffffffffffffffffffffffff16600073ffffffffffffffffffffffffffffffffffffffff167f8be0079c531659141344cd1fd0a4f28419497f9722a3daafe3b4186f6b6457e060405160405180910390a3506100cc565b600033905090565b614fdb806100db6000396000f3fe60806040523480156200001157600080fd5b50600436106200005e5760003560e01c806346e635861462000063578063715018a614620000855780638da5cb5b1462000091578063dce49cb414620000b3578063f2fde38b14620000d3575b600080fd5b6200006d620000f3565b6040516200007c91906200092f565b60405180910390f35b6200008f62000183565b005b6200009b620002c4565b604051620000aa9190620008a0565b60405180910390f35b620000d16004803603810190620000cb91906200069e565b620002ed565b005b620000f16004803603810190620000eb919062000672565b62000420565b005b606060018054806020026020016040519081016040528092919081815260200182805480156200017957602002820191906000526020600020905b8160009054906101000a900473ffffffffffffffffffffffffffffffffffffffff1673ffffffffffffffffffffffffffffffffffffffff16815260200190600101908083116200012e575b5050505050905090565b6200018d620005d3565b73ffffffffffffffffffffffffffffffffffffffff16620001ad620002c4565b73ffffffffffffffffffffffffffffffffffffffff161462000206576040517f08c379a0000000000000000000000000000000000000000000000000000000008152600401620001fd9062000975565b60405180910390fd5b600073ffffffffffffffffffffffffffffffffffffffff1660008054906101000a900473ffffffffffffffffffffffffffffffffffffffff1673ffffffffffffffffffffffffffffffffffffffff167f8be0079c531659141344cd1fd0a4f28419497f9722a3daafe3b4186f6b6457e060405160405180910390a360008060006101000a81548173ffffffffffffffffffffffffffffffffffffffff021916908373ffffffffffffffffffffffffffffffffffffffff160217905550565b60008060009054906101000a900473ffffffffffffffffffffffffffffffffffffffff16905090565b620002f7620005d3565b73ffffffffffffffffffffffffffffffffffffffff1662000317620002c4565b73ffffffffffffffffffffffffffffffffffffffff161462000370576040517f08c379a0000000000000000000000000000000000000000000000000000000008152600401620003679062000975565b60405180910390fd5b600085858585856040516200038590620005db565b62000395959493929190620008bd565b604051809103906000f080158015620003b2573d6000803e3d6000fd5b5090506001819080600181540180825580915050600190039060005260206000200160009091909190916101000a81548173ffffffffffffffffffffffffffffffffffffffff021916908373ffffffffffffffffffffffffffffffffffffffff160217905550505050505050565b6200042a620005d3565b73ffffffffffffffffffffffffffffffffffffffff166200044a620002c4565b73ffffffffffffffffffffffffffffffffffffffff1614620004a3576040517f08c379a00000000000000000000000000000000000000000000000000000000081526004016200049a9062000975565b60405180910390fd5b600073ffffffffffffffffffffffffffffffffffffffff168173ffffffffffffffffffffffffffffffffffffffff16141562000516576040517f08c379a00000000000000000000000000000000000000000000000000000000081526004016200050d9062000953565b60405180910390fd5b8073ffffffffffffffffffffffffffffffffffffffff1660008054906101000a900473ffffffffffffffffffffffffffffffffffffffff1673ffffffffffffffffffffffffffffffffffffffff167f8be0079c531659141344cd1fd0a4f28419497f9722a3daafe3b4186f6b6457e060405160405180910390a3806000806101000a81548173ffffffffffffffffffffffffffffffffffffffff021916908373ffffffffffffffffffffffffffffffffffffffff16021790555050565b600033905090565b6143b18062000bf583390190565b600062000600620005fa84620009c0565b62000997565b9050828152602081018484840111156200061957600080fd5b6200062684828562000aa7565b509392505050565b6000813590506200063f8162000bda565b92915050565b600082601f8301126200065757600080fd5b813562000669848260208601620005e9565b91505092915050565b6000602082840312156200068557600080fd5b600062000695848285016200062e565b91505092915050565b600080600080600060a08688031215620006b757600080fd5b6000620006c7888289016200062e565b955050602086013567ffffffffffffffff811115620006e557600080fd5b620006f38882890162000645565b945050604086013567ffffffffffffffff8111156200071157600080fd5b6200071f8882890162000645565b935050606086013567ffffffffffffffff8111156200073d57600080fd5b6200074b8882890162000645565b92505060806200075e888289016200062e565b9150509295509295909350565b600062000779838362000800565b60208301905092915050565b620007908162000a4b565b82525050565b6000620007a38262000a06565b620007af818562000a29565b9350620007bc83620009f6565b8060005b83811015620007f3578151620007d788826200076b565b9750620007e48362000a1c565b925050600181019050620007c0565b5085935050505092915050565b6200080b8162000a7f565b82525050565b60006200081e8262000a11565b6200082a818562000a3a565b93506200083c81856020860162000ab6565b620008478162000b51565b840191505092915050565b60006200086160268362000a3a565b91506200086e8262000b62565b604082019050919050565b60006200088860208362000a3a565b9150620008958262000bb1565b602082019050919050565b6000602082019050620008b7600083018462000785565b92915050565b600060a082019050620008d4600083018862000785565b8181036020830152620008e8818762000811565b90508181036040830152620008fe818662000811565b9050818103606083015262000914818562000811565b905062000925608083018462000785565b9695505050505050565b600060208201905081810360008301526200094b818462000796565b905092915050565b600060208201905081810360008301526200096e8162000852565b9050919050565b60006020820190508181036000830152620009908162000879565b9050919050565b6000620009a3620009b6565b9050620009b1828262000aec565b919050565b6000604051905090565b600067ffffffffffffffff821115620009de57620009dd62000b22565b5b620009e98262000b51565b9050602081019050919050565b6000819050602082019050919050565b600081519050919050565b600081519050919050565b6000602082019050919050565b600082825260208201905092915050565b600082825260208201905092915050565b600062000a588262000a5f565b9050919050565b600073ffffffffffffffffffffffffffffffffffffffff82169050919050565b600062000a8c8262000a93565b9050919050565b600062000aa08262000a5f565b9050919050565b82818337600083830152505050565b60005b8381101562000ad657808201518184015260208101905062000ab9565b8381111562000ae6576000848401525b50505050565b62000af78262000b51565b810181811067ffffffffffffffff8211171562000b195762000b1862000b22565b5b80604052505050565b7f4e487b7100000000000000000000000000000000000000000000000000000000600052604160045260246000fd5b6000601f19601f8301169050919050565b7f4f776e61626c653a206e6577206f776e657220697320746865207a65726f206160008201527f6464726573730000000000000000000000000000000000000000000000000000602082015250565b7f4f776e61626c653a2063616c6c6572206973206e6f7420746865206f776e6572600082015250565b62000be58162000a4b565b811462000bf157600080fd5b5056fe60806040523480156200001157600080fd5b50604051620043b1380380620043b1833981810160405281019062000037919062000538565b84818585816000908051906020019062000053929190620003ff565b5080600190805190602001906200006c929190620003ff565b5050506000620000816200020b60201b60201c565b905080600660006101000a81548173ffffffffffffffffffffffffffffffffffffffff021916908373ffffffffffffffffffffffffffffffffffffffff1602179055508073ffffffffffffffffffffffffffffffffffffffff16600073ffffffffffffffffffffffffffffffffffffffff167f8be0079c531659141344cd1fd0a4f28419497f9722a3daafe3b4186f6b6457e060405160405180910390a35080600760006101000a81548173ffffffffffffffffffffffffffffffffffffffff021916908373ffffffffffffffffffffffffffffffffffffffff160217905550600073ffffffffffffffffffffffffffffffffffffffff168273ffffffffffffffffffffffffffffffffffffffff161415620001d4576040517f08c379a0000000000000000000000000000000000000000000000000000000008152600401620001cb906200069c565b60405180910390fd5b620001e5826200021360201b60201c565b50508160099080519060200190620001ff929190620003ff565b50505050505062000950565b600033905090565b620002236200020b60201b60201c565b73ffffffffffffffffffffffffffffffffffffffff1662000249620003d560201b60201c565b73ffffffffffffffffffffffffffffffffffffffff1614620002a2576040517f08c379a00000000000000000000000000000000000000000000000000000000081526004016200029990620006be565b60405180910390fd5b600073ffffffffffffffffffffffffffffffffffffffff168173ffffffffffffffffffffffffffffffffffffffff16141562000315576040517f08c379a00000000000000000000000000000000000000000000000000000000081526004016200030c906200067a565b60405180910390fd5b8073ffffffffffffffffffffffffffffffffffffffff16600660009054906101000a900473ffffffffffffffffffffffffffffffffffffffff1673ffffffffffffffffffffffffffffffffffffffff167f8be0079c531659141344cd1fd0a4f28419497f9722a3daafe3b4186f6b6457e060405160405180910390a380600660006101000a81548173ffffffffffffffffffffffffffffffffffffffff021916908373ffffffffffffffffffffffffffffffffffffffff16021790555050565b6000600660009054906101000a900473ffffffffffffffffffffffffffffffffffffffff16905090565b8280546200040d90620007ba565b90600052602060002090601f0160209004810192826200043157600085556200047d565b82601f106200044c57805160ff19168380011785556200047d565b828001600101855582156200047d579182015b828111156200047c5782518255916020019190600101906200045f565b5b5090506200048c919062000490565b5090565b5b80821115620004ab57600081600090555060010162000491565b5090565b6000620004c6620004c08462000709565b620006e0565b905082815260208101848484011115620004df57600080fd5b620004ec84828562000784565b509392505050565b600081519050620005058162000936565b92915050565b600082601f8301126200051d57600080fd5b81516200052f848260208601620004af565b91505092915050565b600080600080600060a086880312156200055157600080fd5b60006200056188828901620004f4565b955050602086015167ffffffffffffffff8111156200057f57600080fd5b6200058d888289016200050b565b945050604086015167ffffffffffffffff811115620005ab57600080fd5b620005b9888289016200050b565b935050606086015167ffffffffffffffff811115620005d757600080fd5b620005e5888289016200050b565b9250506080620005f888828901620004f4565b9150509295509295909350565b6000620006146026836200073f565b9150620006218262000895565b604082019050919050565b60006200063b6017836200073f565b91506200064882620008e4565b602082019050919050565b6000620006626020836200073f565b91506200066f826200090d565b602082019050919050565b60006020820190508181036000830152620006958162000605565b9050919050565b60006020820190508181036000830152620006b7816200062c565b9050919050565b60006020820190508181036000830152620006d98162000653565b9050919050565b6000620006ec620006ff565b9050620006fa8282620007f0565b919050565b6000604051905090565b600067ffffffffffffffff82111562000727576200072662000855565b5b620007328262000884565b9050602081019050919050565b600082825260208201905092915050565b60006200075d8262000764565b9050919050565b600073ffffffffffffffffffffffffffffffffffffffff82169050919050565b60005b83811015620007a457808201518184015260208101905062000787565b83811115620007b4576000848401525b50505050565b60006002820490506001821680620007d357607f821691505b60208210811415620007ea57620007e962000826565b5b50919050565b620007fb8262000884565b810181811067ffffffffffffffff821117156200081d576200081c62000855565b5b80604052505050565b7f4e487b7100000000000000000000000000000000000000000000000000000000600052602260045260246000fd5b7f4e487b7100000000000000000000000000000000000000000000000000000000600052604160045260246000fd5b6000601f19601f8301169050919050565b7f4f776e61626c653a206e6577206f776e657220697320746865207a65726f206160008201527f6464726573730000000000000000000000000000000000000000000000000000602082015250565b7f4f776e6572206d757374206e6f7420626520656d707479000000000000000000600082015250565b7f4f776e61626c653a2063616c6c6572206973206e6f7420746865206f776e6572600082015250565b620009418162000750565b81146200094d57600080fd5b50565b613a5180620009606000396000f3fe608060405234801561001057600080fd5b50600436106101375760003560e01c80636352211e116100b857806395d89b411161007c57806395d89b411461033a578063a22cb46514610358578063b88d4fde14610374578063c87b56dd14610390578063e985e9c5146103c0578063f2fde38b146103f057610137565b80636352211e1461028257806366bf33be146102b257806370a08231146102e2578063715018a6146103125780638da5cb5b1461031c57610137565b806319ee6e3f116100ff57806319ee6e3f146101f457806323b872dd146102105780633370e34c1461022c57806342842e0e1461024a57806355f804b31461026657610137565b806301ffc9a71461013c57806306fdde031461016c578063081812fc1461018a578063095ea7b3146101ba5780630f08025f146101d6575b600080fd5b610156600480360381019061015191906127fa565b61040c565b6040516101639190612d0b565b60405180910390f35b6101746104ee565b6040516101819190612d48565b60405180910390f35b6101a4600480360381019061019f919061288d565b610580565b6040516101b19190612c66565b60405180910390f35b6101d460048036038101906101cf9190612752565b610605565b005b6101de61071d565b6040516101eb9190612c66565b60405180910390f35b61020e6004803603810190610209919061278e565b610743565b005b61022a6004803603810190610225919061264c565b6108da565b005b61023461093a565b6040516102419190612d48565b60405180910390f35b610264600480360381019061025f919061264c565b6109cc565b005b610280600480360381019061027b919061284c565b6109ec565b005b61029c6004803603810190610297919061288d565b610a82565b6040516102a99190612c66565b60405180910390f35b6102cc60048036038101906102c7919061288d565b610b34565b6040516102d99190612d26565b60405180910390f35b6102fc60048036038101906102f791906125e7565b610bd4565b6040516103099190612fea565b60405180910390f35b61031a610c8c565b005b610324610dc9565b6040516103319190612c66565b60405180910390f35b610342610df3565b60405161034f9190612d48565b60405180910390f35b610372600480360381019061036d9190612716565b610e85565b005b61038e6004803603810190610389919061269b565b611006565b005b6103aa60048036038101906103a5919061288d565b611068565b6040516103b79190612d48565b60405180910390f35b6103da60048036038101906103d59190612610565b61110f565b6040516103e79190612d0b565b60405180910390f35b61040a600480360381019061040591906125e7565b6111a3565b005b60007f80ac58cd000000000000000000000000000000000000000000000000000000007bffffffffffffffffffffffffffffffffffffffffffffffffffffffff1916827bffffffffffffffffffffffffffffffffffffffffffffffffffffffff191614806104d757507f5b5e139f000000000000000000000000000000000000000000000000000000007bffffffffffffffffffffffffffffffffffffffffffffffffffffffff1916827bffffffffffffffffffffffffffffffffffffffffffffffffffffffff1916145b806104e757506104e68261134f565b5b9050919050565b6060600080546104fd906132cd565b80601f0160208091040260200160405190810160405280929190818152602001828054610529906132cd565b80156105765780601f1061054b57610100808354040283529160200191610576565b820191906000526020600020905b81548152906001019060200180831161055957829003601f168201915b5050505050905090565b600061058b826113b9565b6105ca576040517f08c379a00000000000000000000000000000000000000000000000000000000081526004016105c190612eea565b60405180910390fd5b6004600083815260200190815260200160002060009054906101000a900473ffffffffffffffffffffffffffffffffffffffff169050919050565b600061061082610a82565b90508073ffffffffffffffffffffffffffffffffffffffff168373ffffffffffffffffffffffffffffffffffffffff161415610681576040517f08c379a000000000000000000000000000000000000000000000000000000000815260040161067890612f6a565b60405180910390fd5b8073ffffffffffffffffffffffffffffffffffffffff166106a0611425565b73ffffffffffffffffffffffffffffffffffffffff1614806106cf57506106ce816106c9611425565b61110f565b5b61070e576040517f08c379a000000000000000000000000000000000000000000000000000000000815260040161070590612e6a565b60405180910390fd5b610718838361142d565b505050565b600760009054906101000a900473ffffffffffffffffffffffffffffffffffffffff1681565b600760009054906101000a900473ffffffffffffffffffffffffffffffffffffffff1673ffffffffffffffffffffffffffffffffffffffff163373ffffffffffffffffffffffffffffffffffffffff1614806107d157506107a2610dc9565b73ffffffffffffffffffffffffffffffffffffffff163373ffffffffffffffffffffffffffffffffffffffff16145b610810576040517f08c379a000000000000000000000000000000000000000000000000000000000815260040161080790612fca565b60405180910390fd5b60018314610853576040517f08c379a000000000000000000000000000000000000000000000000000000000815260040161084a90612e2a565b60405180910390fd5b60008061086084846114e6565b9150915061086f8683836116fb565b8060086000848152602001908152602001600020908051906020019061089692919061233b565b507f31e594f6b36b98ec520a91cbbba7b8724b1cec27393f86d8f0f6aa6084db0aaf8683836040516108ca93929190612ccd565b60405180910390a1505050505050565b6108eb6108e5611425565b8261170a565b61092a576040517f08c379a000000000000000000000000000000000000000000000000000000000815260040161092190612faa565b60405180910390fd5b6109358383836117e8565b505050565b606060098054610949906132cd565b80601f0160208091040260200160405190810160405280929190818152602001828054610975906132cd565b80156109c25780601f10610997576101008083540402835291602001916109c2565b820191906000526020600020905b8154815290600101906020018083116109a557829003601f168201915b5050505050905090565b6109e783838360405180602001604052806000815250611006565b505050565b6109f4611425565b73ffffffffffffffffffffffffffffffffffffffff16610a12610dc9565b73ffffffffffffffffffffffffffffffffffffffff1614610a68576040517f08c379a0000000000000000000000000000000000000000000000000000000008152600401610a5f90612f0a565b60405180910390fd5b8060099080519060200190610a7e9291906123c1565b5050565b6000806002600084815260200190815260200160002060009054906101000a900473ffffffffffffffffffffffffffffffffffffffff169050600073ffffffffffffffffffffffffffffffffffffffff168173ffffffffffffffffffffffffffffffffffffffff161415610b2b576040517f08c379a0000000000000000000000000000000000000000000000000000000008152600401610b2290612eaa565b60405180910390fd5b80915050919050565b60086020528060005260406000206000915090508054610b53906132cd565b80601f0160208091040260200160405190810160405280929190818152602001828054610b7f906132cd565b8015610bcc5780601f10610ba157610100808354040283529160200191610bcc565b820191906000526020600020905b815481529060010190602001808311610baf57829003601f168201915b505050505081565b60008073ffffffffffffffffffffffffffffffffffffffff168273ffffffffffffffffffffffffffffffffffffffff161415610c45576040517f08c379a0000000000000000000000000000000000000000000000000000000008152600401610c3c90612e8a565b60405180910390fd5b600360008373ffffffffffffffffffffffffffffffffffffffff1673ffffffffffffffffffffffffffffffffffffffff168152602001908152602001600020549050919050565b610c94611425565b73ffffffffffffffffffffffffffffffffffffffff16610cb2610dc9565b73ffffffffffffffffffffffffffffffffffffffff1614610d08576040517f08c379a0000000000000000000000000000000000000000000000000000000008152600401610cff90612f0a565b60405180910390fd5b600073ffffffffffffffffffffffffffffffffffffffff16600660009054906101000a900473ffffffffffffffffffffffffffffffffffffffff1673ffffffffffffffffffffffffffffffffffffffff167f8be0079c531659141344cd1fd0a4f28419497f9722a3daafe3b4186f6b6457e060405160405180910390a36000600660006101000a81548173ffffffffffffffffffffffffffffffffffffffff021916908373ffffffffffffffffffffffffffffffffffffffff160217905550565b6000600660009054906101000a900473ffffffffffffffffffffffffffffffffffffffff16905090565b606060018054610e02906132cd565b80601f0160208091040260200160405190810160405280929190818152602001828054610e2e906132cd565b8015610e7b5780601f10610e5057610100808354040283529160200191610e7b565b820191906000526020600020905b815481529060010190602001808311610e5e57829003601f168201915b5050505050905090565b610e8d611425565b73ffffffffffffffffffffffffffffffffffffffff168273ffffffffffffffffffffffffffffffffffffffff161415610efb576040517f08c379a0000000000000000000000000000000000000000000000000000000008152600401610ef290612e0a565b60405180910390fd5b8060056000610f08611425565b73ffffffffffffffffffffffffffffffffffffffff1673ffffffffffffffffffffffffffffffffffffffff16815260200190815260200160002060008473ffffffffffffffffffffffffffffffffffffffff1673ffffffffffffffffffffffffffffffffffffffff16815260200190815260200160002060006101000a81548160ff0219169083151502179055508173ffffffffffffffffffffffffffffffffffffffff16610fb5611425565b73ffffffffffffffffffffffffffffffffffffffff167f17307eab39ab6107e8899845ad3d59bd9653f200f220920489ca2b5937696c3183604051610ffa9190612d0b565b60405180910390a35050565b611017611011611425565b8361170a565b611056576040517f08c379a000000000000000000000000000000000000000000000000000000000815260040161104d90612faa565b60405180910390fd5b61106284848484611a44565b50505050565b6060611073826113b9565b6110b2576040517f08c379a00000000000000000000000000000000000000000000000000000000081526004016110a990612f4a565b60405180910390fd5b60006110bc611aa0565b905060008151116110dc5760405180602001604052806000815250611107565b806110e684611b32565b6040516020016110f7929190612c42565b6040516020818303038152906040525b915050919050565b6000600560008473ffffffffffffffffffffffffffffffffffffffff1673ffffffffffffffffffffffffffffffffffffffff16815260200190815260200160002060008373ffffffffffffffffffffffffffffffffffffffff1673ffffffffffffffffffffffffffffffffffffffff16815260200190815260200160002060009054906101000a900460ff16905092915050565b6111ab611425565b73ffffffffffffffffffffffffffffffffffffffff166111c9610dc9565b73ffffffffffffffffffffffffffffffffffffffff161461121f576040517f08c379a000000000000000000000000000000000000000000000000000000000815260040161121690612f0a565b60405180910390fd5b600073ffffffffffffffffffffffffffffffffffffffff168173ffffffffffffffffffffffffffffffffffffffff16141561128f576040517f08c379a000000000000000000000000000000000000000000000000000000000815260040161128690612daa565b60405180910390fd5b8073ffffffffffffffffffffffffffffffffffffffff16600660009054906101000a900473ffffffffffffffffffffffffffffffffffffffff1673ffffffffffffffffffffffffffffffffffffffff167f8be0079c531659141344cd1fd0a4f28419497f9722a3daafe3b4186f6b6457e060405160405180910390a380600660006101000a81548173ffffffffffffffffffffffffffffffffffffffff021916908373ffffffffffffffffffffffffffffffffffffffff16021790555050565b60007f01ffc9a7000000000000000000000000000000000000000000000000000000007bffffffffffffffffffffffffffffffffffffffffffffffffffffffff1916827bffffffffffffffffffffffffffffffffffffffffffffffffffffffff1916149050919050565b60008073ffffffffffffffffffffffffffffffffffffffff166002600084815260200190815260200160002060009054906101000a900473ffffffffffffffffffffffffffffffffffffffff1673ffffffffffffffffffffffffffffffffffffffff1614159050919050565b600033905090565b816004600083815260200190815260200160002060006101000a81548173ffffffffffffffffffffffffffffffffffffffff021916908373ffffffffffffffffffffffffffffffffffffffff160217905550808273ffffffffffffffffffffffffffffffffffffffff166114a083610a82565b73ffffffffffffffffffffffffffffffffffffffff167f8c5be1e5ebec7d5bd14f71427d1e84f3dd0314c0f7b2291e5b200ac8c7c3b92560405160405180910390a45050565b60006060600061157185858080601f016020809104026020016040519081016040528093929190818152602001838380828437600081840152601f19601f820116905080830192505050505050506040518060400160405280600181526020017f3a000000000000000000000000000000000000000000000000000000000000008152506000611cdf565b905060008112156115b7576040517f08c379a00000000000000000000000000000000000000000000000000000000081526004016115ae90612f8a565b60405180910390fd5b600061162386866001906001866115ce91906131e3565b926115db939291906130cf565b8080601f016020809104026020016040519081016040528093929190818152602001838380828437600081840152601f19601f82011690508083019250505050505050611e49565b905060006003838888905061163891906131e3565b61164291906131e3565b9050600081141561166a578160405180602001604052806000815250945094505050506116f4565b366000888860028761167c9190613102565b9060018c8c905061168d91906131e3565b9261169a939291906130cf565b9150915083828281818080601f016020809104026020016040519081016040528093929190818152602001838380828437600081840152601f19601f82011690508083019250505050505050905090509650965050505050505b9250929050565b6117058383611f45565b505050565b6000611715826113b9565b611754576040517f08c379a000000000000000000000000000000000000000000000000000000000815260040161174b90612e4a565b60405180910390fd5b600061175f83610a82565b90508073ffffffffffffffffffffffffffffffffffffffff168473ffffffffffffffffffffffffffffffffffffffff1614806117ce57508373ffffffffffffffffffffffffffffffffffffffff166117b684610580565b73ffffffffffffffffffffffffffffffffffffffff16145b806117df57506117de818561110f565b5b91505092915050565b8273ffffffffffffffffffffffffffffffffffffffff1661180882610a82565b73ffffffffffffffffffffffffffffffffffffffff161461185e576040517f08c379a000000000000000000000000000000000000000000000000000000000815260040161185590612f2a565b60405180910390fd5b600073ffffffffffffffffffffffffffffffffffffffff168273ffffffffffffffffffffffffffffffffffffffff1614156118ce576040517f08c379a00000000000000000000000000000000000000000000000000000000081526004016118c590612dea565b60405180910390fd5b6118d9838383611f63565b6118e460008261142d565b6001600360008573ffffffffffffffffffffffffffffffffffffffff1673ffffffffffffffffffffffffffffffffffffffff168152602001908152602001600020600082825461193491906131e3565b925050819055506001600360008473ffffffffffffffffffffffffffffffffffffffff1673ffffffffffffffffffffffffffffffffffffffff168152602001908152602001600020600082825461198b9190613102565b92505081905550816002600083815260200190815260200160002060006101000a81548173ffffffffffffffffffffffffffffffffffffffff021916908373ffffffffffffffffffffffffffffffffffffffff160217905550808273ffffffffffffffffffffffffffffffffffffffff168473ffffffffffffffffffffffffffffffffffffffff167fddf252ad1be2c89b69c2b068fc378daa952ba7f163c4a11628f55a4df523b3ef60405160405180910390a4505050565b611a4f8484846117e8565b611a5b84848484611f68565b611a9a576040517f08c379a0000000000000000000000000000000000000000000000000000000008152600401611a9190612d8a565b60405180910390fd5b50505050565b606060098054611aaf906132cd565b80601f0160208091040260200160405190810160405280929190818152602001828054611adb906132cd565b8015611b285780601f10611afd57610100808354040283529160200191611b28565b820191906000526020600020905b815481529060010190602001808311611b0b57829003601f168201915b5050505050905090565b60606000821415611b7a576040518060400160405280600181526020017f30000000000000000000000000000000000000000000000000000000000000008152509050611cda565b600082905060005b60008214611bac578080611b9590613330565b915050600a82611ba59190613158565b9150611b82565b60008167ffffffffffffffff811115611bee577f4e487b7100000000000000000000000000000000000000000000000000000000600052604160045260246000fd5b6040519080825280601f01601f191660200182016040528015611c205781602001600182028036833780820191505090505b5090505b60008514611cd357600182611c3991906131e3565b9150600a85611c489190613379565b6030611c549190613102565b60f81b818381518110611c90577f4e487b7100000000000000000000000000000000000000000000000000000000600052603260045260246000fd5b60200101907effffffffffffffffffffffffffffffffffffffffffffffffffffffffffffff1916908160001a905350600a85611ccc9190613158565b9450611c24565b8093505050505b919050565b6000808390506001815114611d1d577f4e487b7100000000000000000000000000000000000000000000000000000000600052600160045260246000fd5b60008390505b8551811015611e1c5781600081518110611d66577f4e487b7100000000000000000000000000000000000000000000000000000000600052603260045260246000fd5b602001015160f81c60f81b7effffffffffffffffffffffffffffffffffffffffffffffffffffffffffffff1916868281518110611dcc577f4e487b7100000000000000000000000000000000000000000000000000000000600052603260045260246000fd5b602001015160f81c60f81b7effffffffffffffffffffffffffffffffffffffffffffffffffffffffffffff19161415611e09578092505050611e42565b8080611e1490613330565b915050611d23565b507fffffffffffffffffffffffffffffffffffffffffffffffffffffffffffffffff9150505b9392505050565b6000806000905060005b8351811015611f3b576000848281518110611e97577f4e487b7100000000000000000000000000000000000000000000000000000000600052603260045260246000fd5b602001015160f81c60f81b60f81c60ff16905060308110158015611ebc575060398111155b15611eec57603081611ece91906131e3565b600a84611edb9190613189565b611ee59190613102565b9250611f27565b6040517f08c379a0000000000000000000000000000000000000000000000000000000008152600401611f1e90612d6a565b60405180910390fd5b508080611f3390613330565b915050611e53565b5080915050919050565b611f5f8282604051806020016040528060008152506120ff565b5050565b505050565b6000611f898473ffffffffffffffffffffffffffffffffffffffff1661215a565b156120f2578373ffffffffffffffffffffffffffffffffffffffff1663150b7a02611fb2611425565b8786866040518563ffffffff1660e01b8152600401611fd49493929190612c81565b602060405180830381600087803b158015611fee57600080fd5b505af192505050801561201f57506040513d601f19601f8201168201806040525081019061201c9190612823565b60015b6120a2573d806000811461204f576040519150601f19603f3d011682016040523d82523d6000602084013e612054565b606091505b5060008151141561209a576040517f08c379a000000000000000000000000000000000000000000000000000000000815260040161209190612d8a565b60405180910390fd5b805181602001fd5b63150b7a0260e01b7bffffffffffffffffffffffffffffffffffffffffffffffffffffffff1916817bffffffffffffffffffffffffffffffffffffffffffffffffffffffff1916149150506120f7565b600190505b949350505050565b612109838361216d565b6121166000848484611f68565b612155576040517f08c379a000000000000000000000000000000000000000000000000000000000815260040161214c90612d8a565b60405180910390fd5b505050565b600080823b905060008111915050919050565b600073ffffffffffffffffffffffffffffffffffffffff168273ffffffffffffffffffffffffffffffffffffffff1614156121dd576040517f08c379a00000000000000000000000000000000000000000000000000000000081526004016121d490612eca565b60405180910390fd5b6121e6816113b9565b15612226576040517f08c379a000000000000000000000000000000000000000000000000000000000815260040161221d90612dca565b60405180910390fd5b61223260008383611f63565b6001600360008473ffffffffffffffffffffffffffffffffffffffff1673ffffffffffffffffffffffffffffffffffffffff16815260200190815260200160002060008282546122829190613102565b92505081905550816002600083815260200190815260200160002060006101000a81548173ffffffffffffffffffffffffffffffffffffffff021916908373ffffffffffffffffffffffffffffffffffffffff160217905550808273ffffffffffffffffffffffffffffffffffffffff16600073ffffffffffffffffffffffffffffffffffffffff167fddf252ad1be2c89b69c2b068fc378daa952ba7f163c4a11628f55a4df523b3ef60405160405180910390a45050565b828054612347906132cd565b90600052602060002090601f01602090048101928261236957600085556123b0565b82601f1061238257805160ff19168380011785556123b0565b828001600101855582156123b0579182015b828111156123af578251825591602001919060010190612394565b5b5090506123bd9190612447565b5090565b8280546123cd906132cd565b90600052602060002090601f0160209004810192826123ef5760008555612436565b82601f1061240857805160ff1916838001178555612436565b82800160010185558215612436579182015b8281111561243557825182559160200191906001019061241a565b5b5090506124439190612447565b5090565b5b80821115612460576000816000905550600101612448565b5090565b60006124776124728461302a565b613005565b90508281526020810184848401111561248f57600080fd5b61249a84828561328b565b509392505050565b60006124b56124b08461305b565b613005565b9050828152602081018484840111156124cd57600080fd5b6124d884828561328b565b509392505050565b6000813590506124ef816139bf565b92915050565b600081359050612504816139d6565b92915050565b600081359050612519816139ed565b92915050565b60008151905061252e816139ed565b92915050565b60008083601f84011261254657600080fd5b8235905067ffffffffffffffff81111561255f57600080fd5b60208301915083600182028301111561257757600080fd5b9250929050565b600082601f83011261258f57600080fd5b813561259f848260208601612464565b91505092915050565b600082601f8301126125b957600080fd5b81356125c98482602086016124a2565b91505092915050565b6000813590506125e181613a04565b92915050565b6000602082840312156125f957600080fd5b6000612607848285016124e0565b91505092915050565b6000806040838503121561262357600080fd5b6000612631858286016124e0565b9250506020612642858286016124e0565b9150509250929050565b60008060006060848603121561266157600080fd5b600061266f868287016124e0565b9350506020612680868287016124e0565b9250506040612691868287016125d2565b9150509250925092565b600080600080608085870312156126b157600080fd5b60006126bf878288016124e0565b94505060206126d0878288016124e0565b93505060406126e1878288016125d2565b925050606085013567ffffffffffffffff8111156126fe57600080fd5b61270a8782880161257e565b91505092959194509250565b6000806040838503121561272957600080fd5b6000612737858286016124e0565b9250506020612748858286016124f5565b9150509250929050565b6000806040838503121561276557600080fd5b6000612773858286016124e0565b9250506020612784858286016125d2565b9150509250929050565b600080600080606085870312156127a457600080fd5b60006127b2878288016124e0565b94505060206127c3878288016125d2565b935050604085013567ffffffffffffffff8111156127e057600080fd5b6127ec87828801612534565b925092505092959194509250565b60006020828403121561280c57600080fd5b600061281a8482850161250a565b91505092915050565b60006020828403121561283557600080fd5b60006128438482850161251f565b91505092915050565b60006020828403121561285e57600080fd5b600082013567ffffffffffffffff81111561287857600080fd5b612884848285016125a8565b91505092915050565b60006020828403121561289f57600080fd5b60006128ad848285016125d2565b91505092915050565b6128bf81613217565b82525050565b6128ce81613229565b82525050565b60006128df8261308c565b6128e981856130a2565b93506128f981856020860161329a565b61290281613466565b840191505092915050565b600061291882613097565b61292281856130b3565b935061293281856020860161329a565b61293b81613466565b840191505092915050565b600061295182613097565b61295b81856130c4565b935061296b81856020860161329a565b80840191505092915050565b60006129846023836130b3565b915061298f82613477565b604082019050919050565b60006129a76032836130b3565b91506129b2826134c6565b604082019050919050565b60006129ca6026836130b3565b91506129d582613515565b604082019050919050565b60006129ed601c836130b3565b91506129f882613564565b602082019050919050565b6000612a106024836130b3565b9150612a1b8261358d565b604082019050919050565b6000612a336019836130b3565b9150612a3e826135dc565b602082019050919050565b6000612a56601a836130b3565b9150612a6182613605565b602082019050919050565b6000612a79602c836130b3565b9150612a848261362e565b604082019050919050565b6000612a9c6038836130b3565b9150612aa78261367d565b604082019050919050565b6000612abf602a836130b3565b9150612aca826136cc565b604082019050919050565b6000612ae26029836130b3565b9150612aed8261371b565b604082019050919050565b6000612b056020836130b3565b9150612b108261376a565b602082019050919050565b6000612b28602c836130b3565b9150612b3382613793565b604082019050919050565b6000612b4b6020836130b3565b9150612b56826137e2565b602082019050919050565b6000612b6e6029836130b3565b9150612b798261380b565b604082019050919050565b6000612b91602f836130b3565b9150612b9c8261385a565b604082019050919050565b6000612bb46021836130b3565b9150612bbf826138a9565b604082019050919050565b6000612bd76014836130b3565b9150612be2826138f8565b602082019050919050565b6000612bfa6031836130b3565b9150612c0582613921565b604082019050919050565b6000612c1d602b836130b3565b9150612c2882613970565b604082019050919050565b612c3c81613281565b82525050565b6000612c4e8285612946565b9150612c5a8284612946565b91508190509392505050565b6000602082019050612c7b60008301846128b6565b92915050565b6000608082019050612c9660008301876128b6565b612ca360208301866128b6565b612cb06040830185612c33565b8181036060830152612cc281846128d4565b905095945050505050565b6000606082019050612ce260008301866128b6565b612cef6020830185612c33565b8181036040830152612d0181846128d4565b9050949350505050565b6000602082019050612d2060008301846128c5565b92915050565b60006020820190508181036000830152612d4081846128d4565b905092915050565b60006020820190508181036000830152612d62818461290d565b905092915050565b60006020820190508181036000830152612d8381612977565b9050919050565b60006020820190508181036000830152612da38161299a565b9050919050565b60006020820190508181036000830152612dc3816129bd565b9050919050565b60006020820190508181036000830152612de3816129e0565b9050919050565b60006020820190508181036000830152612e0381612a03565b9050919050565b60006020820190508181036000830152612e2381612a26565b9050919050565b60006020820190508181036000830152612e4381612a49565b9050919050565b60006020820190508181036000830152612e6381612a6c565b9050919050565b60006020820190508181036000830152612e8381612a8f565b9050919050565b60006020820190508181036000830152612ea381612ab2565b9050919050565b60006020820190508181036000830152612ec381612ad5565b9050919050565b60006020820190508181036000830152612ee381612af8565b9050919050565b60006020820190508181036000830152612f0381612b1b565b9050919050565b60006020820190508181036000830152612f2381612b3e565b9050919050565b60006020820190508181036000830152612f4381612b61565b9050919050565b60006020820190508181036000830152612f6381612b84565b9050919050565b60006020820190508181036000830152612f8381612ba7565b9050919050565b60006020820190508181036000830152612fa381612bca565b9050919050565b60006020820190508181036000830152612fc381612bed565b9050919050565b60006020820190508181036000830152612fe381612c10565b9050919050565b6000602082019050612fff6000830184612c33565b92915050565b600061300f613020565b905061301b82826132ff565b919050565b6000604051905090565b600067ffffffffffffffff82111561304557613044613437565b5b61304e82613466565b9050602081019050919050565b600067ffffffffffffffff82111561307657613075613437565b5b61307f82613466565b9050602081019050919050565b600081519050919050565b600081519050919050565b600082825260208201905092915050565b600082825260208201905092915050565b600081905092915050565b600080858511156130df57600080fd5b838611156130ec57600080fd5b6001850283019150848603905094509492505050565b600061310d82613281565b915061311883613281565b9250827fffffffffffffffffffffffffffffffffffffffffffffffffffffffffffffffff0382111561314d5761314c6133aa565b5b828201905092915050565b600061316382613281565b915061316e83613281565b92508261317e5761317d6133d9565b5b828204905092915050565b600061319482613281565b915061319f83613281565b9250817fffffffffffffffffffffffffffffffffffffffffffffffffffffffffffffffff04831182151516156131d8576131d76133aa565b5b828202905092915050565b60006131ee82613281565b91506131f983613281565b92508282101561320c5761320b6133aa565b5b828203905092915050565b600061322282613261565b9050919050565b60008115159050919050565b60007fffffffff0000000000000000000000000000000000000000000000000000000082169050919050565b600073ffffffffffffffffffffffffffffffffffffffff82169050919050565b6000819050919050565b82818337600083830152505050565b60005b838110156132b857808201518184015260208101905061329d565b838111156132c7576000848401525b50505050565b600060028204905060018216806132e557607f821691505b602082108114156132f9576132f8613408565b5b50919050565b61330882613466565b810181811067ffffffffffffffff8211171561332757613326613437565b5b80604052505050565b600061333b82613281565b91507fffffffffffffffffffffffffffffffffffffffffffffffffffffffffffffffff82141561336e5761336d6133aa565b5b600182019050919050565b600061338482613281565b915061338f83613281565b92508261339f5761339e6133d9565b5b828206905092915050565b7f4e487b7100000000000000000000000000000000000000000000000000000000600052601160045260246000fd5b7f4e487b7100000000000000000000000000000000000000000000000000000000600052601260045260246000fd5b7f4e487b7100000000000000000000000000000000000000000000000000000000600052602260045260246000fd5b7f4e487b7100000000000000000000000000000000000000000000000000000000600052604160045260246000fd5b6000601f19601f8301169050919050565b7f696e76616c696420696e7075742c206f6e6c79206e756d6265727320616c6c6f60008201527f7765640000000000000000000000000000000000000000000000000000000000602082015250565b7f4552433732313a207472616e7366657220746f206e6f6e20455243373231526560008201527f63656976657220696d706c656d656e7465720000000000000000000000000000602082015250565b7f4f776e61626c653a206e6577206f776e657220697320746865207a65726f206160008201527f6464726573730000000000000000000000000000000000000000000000000000602082015250565b7f4552433732313a20746f6b656e20616c7265616479206d696e74656400000000600082015250565b7f4552433732313a207472616e7366657220746f20746865207a65726f2061646460008201527f7265737300000000000000000000000000000000000000000000000000000000602082015250565b7f4552433732313a20617070726f766520746f2063616c6c657200000000000000600082015250565b7f4d696e7461626c653a20696e76616c6964207175616e74697479000000000000600082015250565b7f4552433732313a206f70657261746f7220717565727920666f72206e6f6e657860008201527f697374656e7420746f6b656e0000000000000000000000000000000000000000602082015250565b7f4552433732313a20617070726f76652063616c6c6572206973206e6f74206f7760008201527f6e6572206e6f7220617070726f76656420666f7220616c6c0000000000000000602082015250565b7f4552433732313a2062616c616e636520717565727920666f7220746865207a6560008201527f726f206164647265737300000000000000000000000000000000000000000000602082015250565b7f4552433732313a206f776e657220717565727920666f72206e6f6e657869737460008201527f656e7420746f6b656e0000000000000000000000000000000000000000000000602082015250565b7f4552433732313a206d696e7420746f20746865207a65726f2061646472657373600082015250565b7f4552433732313a20617070726f76656420717565727920666f72206e6f6e657860008201527f697374656e7420746f6b656e0000000000000000000000000000000000000000602082015250565b7f4f776e61626c653a2063616c6c6572206973206e6f7420746865206f776e6572600082015250565b7f4552433732313a207472616e73666572206f6620746f6b656e2074686174206960008201527f73206e6f74206f776e0000000000000000000000000000000000000000000000602082015250565b7f4552433732314d657461646174613a2055524920717565727920666f72206e6f60008201527f6e6578697374656e7420746f6b656e0000000000000000000000000000000000602082015250565b7f4552433732313a20617070726f76616c20746f2063757272656e74206f776e6560008201527f7200000000000000000000000000000000000000000000000000000000000000602082015250565b7f536570617261746f72206d757374206578697374000000000000000000000000600082015250565b7f4552433732313a207472616e736665722063616c6c6572206973206e6f74206f60008201527f776e6572206e6f7220617070726f766564000000000000000000000000000000602082015250565b7f46756e6374696f6e2063616e206f6e6c792062652063616c6c6564206279206f60008201527f776e6572206f7220494d58000000000000000000000000000000000000000000602082015250565b6139c881613217565b81146139d357600080fd5b50565b6139df81613229565b81146139ea57600080fd5b50565b6139f681613235565b8114613a0157600080fd5b50565b613a0d81613281565b8114613a1857600080fd5b5056fea2646970667358221220655c3900791e90ce8fb73cdcf0cc85ebb782b26c388469ae296e5626448f7a2364736f6c63430008040033a264697066735822122065e5d53f04a31b1a1bd74b95f96ac88c9a94c09161aaaf7a90d5f8063cd791f564736f6c63430008040033",
  "linkReferences": {},
  "deployedLinkReferences": {}
}